{
  "_format": "hh-sol-artifact-1",
  "contractName": "GovernanceToken",
  "sourceName": "contracts/GovernanceToken.sol",
  "abi": [
    {
      "inputs": [],
      "stateMutability": "nonpayable",
      "type": "constructor"
    },
    {
      "inputs": [],
      "name": "CheckpointUnorderedInsertion",
      "type": "error"
    },
    {
      "inputs": [],
      "name": "ECDSAInvalidSignature",
      "type": "error"
    },
    {
      "inputs": [
        {
          "internalType": "uint256",
          "name": "length",
          "type": "uint256"
        }
      ],
      "name": "ECDSAInvalidSignatureLength",
      "type": "error"
    },
    {
      "inputs": [
        {
          "internalType": "bytes32",
          "name": "s",
          "type": "bytes32"
        }
      ],
      "name": "ECDSAInvalidSignatureS",
      "type": "error"
    },
    {
      "inputs": [
        {
          "internalType": "uint256",
          "name": "increasedSupply",
          "type": "uint256"
        },
        {
          "internalType": "uint256",
          "name": "cap",
          "type": "uint256"
        }
      ],
      "name": "ERC20ExceededSafeSupply",
      "type": "error"
    },
    {
      "inputs": [
        {
          "internalType": "address",
          "name": "spender",
          "type": "address"
        },
        {
          "internalType": "uint256",
          "name": "allowance",
          "type": "uint256"
        },
        {
          "internalType": "uint256",
          "name": "needed",
          "type": "uint256"
        }
      ],
      "name": "ERC20InsufficientAllowance",
      "type": "error"
    },
    {
      "inputs": [
        {
          "internalType": "address",
          "name": "sender",
          "type": "address"
        },
        {
          "internalType": "uint256",
          "name": "balance",
          "type": "uint256"
        },
        {
          "internalType": "uint256",
          "name": "needed",
          "type": "uint256"
        }
      ],
      "name": "ERC20InsufficientBalance",
      "type": "error"
    },
    {
      "inputs": [
        {
          "internalType": "address",
          "name": "approver",
          "type": "address"
        }
      ],
      "name": "ERC20InvalidApprover",
      "type": "error"
    },
    {
      "inputs": [
        {
          "internalType": "address",
          "name": "receiver",
          "type": "address"
        }
      ],
      "name": "ERC20InvalidReceiver",
      "type": "error"
    },
    {
      "inputs": [
        {
          "internalType": "address",
          "name": "sender",
          "type": "address"
        }
      ],
      "name": "ERC20InvalidSender",
      "type": "error"
    },
    {
      "inputs": [
        {
          "internalType": "address",
          "name": "spender",
          "type": "address"
        }
      ],
      "name": "ERC20InvalidSpender",
      "type": "error"
    },
    {
      "inputs": [
        {
          "internalType": "uint256",
          "name": "deadline",
          "type": "uint256"
        }
      ],
      "name": "ERC2612ExpiredSignature",
      "type": "error"
    },
    {
      "inputs": [
        {
          "internalType": "address",
          "name": "signer",
          "type": "address"
        },
        {
          "internalType": "address",
          "name": "owner",
          "type": "address"
        }
      ],
      "name": "ERC2612InvalidSigner",
      "type": "error"
    },
    {
      "inputs": [
        {
          "internalType": "uint256",
          "name": "timepoint",
          "type": "uint256"
        },
        {
          "internalType": "uint48",
          "name": "clock",
          "type": "uint48"
        }
      ],
      "name": "ERC5805FutureLookup",
      "type": "error"
    },
    {
      "inputs": [],
      "name": "ERC6372InconsistentClock",
      "type": "error"
    },
    {
      "inputs": [
        {
          "internalType": "address",
          "name": "account",
          "type": "address"
        },
        {
          "internalType": "uint256",
          "name": "currentNonce",
          "type": "uint256"
        }
      ],
      "name": "InvalidAccountNonce",
      "type": "error"
    },
    {
      "inputs": [],
      "name": "InvalidShortString",
      "type": "error"
    },
    {
      "inputs": [
        {
          "internalType": "uint8",
          "name": "bits",
          "type": "uint8"
        },
        {
          "internalType": "uint256",
          "name": "value",
          "type": "uint256"
        }
      ],
      "name": "SafeCastOverflowedUintDowncast",
      "type": "error"
    },
    {
      "inputs": [
        {
          "internalType": "string",
          "name": "str",
          "type": "string"
        }
      ],
      "name": "StringTooLong",
      "type": "error"
    },
    {
      "inputs": [
        {
          "internalType": "uint256",
          "name": "expiry",
          "type": "uint256"
        }
      ],
      "name": "VotesExpiredSignature",
      "type": "error"
    },
    {
      "anonymous": false,
      "inputs": [
        {
          "indexed": true,
          "internalType": "address",
          "name": "owner",
          "type": "address"
        },
        {
          "indexed": true,
          "internalType": "address",
          "name": "spender",
          "type": "address"
        },
        {
          "indexed": false,
          "internalType": "uint256",
          "name": "value",
          "type": "uint256"
        }
      ],
      "name": "Approval",
      "type": "event"
    },
    {
      "anonymous": false,
      "inputs": [
        {
          "indexed": true,
          "internalType": "address",
          "name": "delegator",
          "type": "address"
        },
        {
          "indexed": true,
          "internalType": "address",
          "name": "fromDelegate",
          "type": "address"
        },
        {
          "indexed": true,
          "internalType": "address",
          "name": "toDelegate",
          "type": "address"
        }
      ],
      "name": "DelegateChanged",
      "type": "event"
    },
    {
      "anonymous": false,
      "inputs": [
        {
          "indexed": true,
          "internalType": "address",
          "name": "delegate",
          "type": "address"
        },
        {
          "indexed": false,
          "internalType": "uint256",
          "name": "previousVotes",
          "type": "uint256"
        },
        {
          "indexed": false,
          "internalType": "uint256",
          "name": "newVotes",
          "type": "uint256"
        }
      ],
      "name": "DelegateVotesChanged",
      "type": "event"
    },
    {
      "anonymous": false,
      "inputs": [],
      "name": "EIP712DomainChanged",
      "type": "event"
    },
    {
      "anonymous": false,
      "inputs": [
        {
          "indexed": true,
          "internalType": "address",
          "name": "from",
          "type": "address"
        },
        {
          "indexed": true,
          "internalType": "address",
          "name": "to",
          "type": "address"
        },
        {
          "indexed": false,
          "internalType": "uint256",
          "name": "value",
          "type": "uint256"
        }
      ],
      "name": "Transfer",
      "type": "event"
    },
    {
      "inputs": [],
      "name": "CLOCK_MODE",
      "outputs": [
        {
          "internalType": "string",
          "name": "",
          "type": "string"
        }
      ],
      "stateMutability": "view",
      "type": "function"
    },
    {
      "inputs": [],
      "name": "DOMAIN_SEPARATOR",
      "outputs": [
        {
          "internalType": "bytes32",
          "name": "",
          "type": "bytes32"
        }
      ],
      "stateMutability": "view",
      "type": "function"
    },
    {
      "inputs": [
        {
          "internalType": "address",
          "name": "owner",
          "type": "address"
        },
        {
          "internalType": "address",
          "name": "spender",
          "type": "address"
        }
      ],
      "name": "allowance",
      "outputs": [
        {
          "internalType": "uint256",
          "name": "",
          "type": "uint256"
        }
      ],
      "stateMutability": "view",
      "type": "function"
    },
    {
      "inputs": [
        {
          "internalType": "address",
          "name": "spender",
          "type": "address"
        },
        {
          "internalType": "uint256",
          "name": "value",
          "type": "uint256"
        }
      ],
      "name": "approve",
      "outputs": [
        {
          "internalType": "bool",
          "name": "",
          "type": "bool"
        }
      ],
      "stateMutability": "nonpayable",
      "type": "function"
    },
    {
      "inputs": [
        {
          "internalType": "address",
          "name": "account",
          "type": "address"
        }
      ],
      "name": "balanceOf",
      "outputs": [
        {
          "internalType": "uint256",
          "name": "",
          "type": "uint256"
        }
      ],
      "stateMutability": "view",
      "type": "function"
    },
    {
      "inputs": [
        {
          "internalType": "address",
          "name": "account",
          "type": "address"
        },
        {
          "internalType": "uint32",
          "name": "pos",
          "type": "uint32"
        }
      ],
      "name": "checkpoints",
      "outputs": [
        {
          "components": [
            {
              "internalType": "uint48",
              "name": "_key",
              "type": "uint48"
            },
            {
              "internalType": "uint208",
              "name": "_value",
              "type": "uint208"
            }
          ],
          "internalType": "struct Checkpoints.Checkpoint208",
          "name": "",
          "type": "tuple"
        }
      ],
      "stateMutability": "view",
      "type": "function"
    },
    {
      "inputs": [],
      "name": "clock",
      "outputs": [
        {
          "internalType": "uint48",
          "name": "",
          "type": "uint48"
        }
      ],
      "stateMutability": "view",
      "type": "function"
    },
    {
      "inputs": [],
      "name": "decimals",
      "outputs": [
        {
          "internalType": "uint8",
          "name": "",
          "type": "uint8"
        }
      ],
      "stateMutability": "view",
      "type": "function"
    },
    {
      "inputs": [
        {
          "internalType": "address",
          "name": "delegatee",
          "type": "address"
        }
      ],
      "name": "delegate",
      "outputs": [],
      "stateMutability": "nonpayable",
      "type": "function"
    },
    {
      "inputs": [
        {
          "internalType": "address",
          "name": "delegatee",
          "type": "address"
        },
        {
          "internalType": "uint256",
          "name": "nonce",
          "type": "uint256"
        },
        {
          "internalType": "uint256",
          "name": "expiry",
          "type": "uint256"
        },
        {
          "internalType": "uint8",
          "name": "v",
          "type": "uint8"
        },
        {
          "internalType": "bytes32",
          "name": "r",
          "type": "bytes32"
        },
        {
          "internalType": "bytes32",
          "name": "s",
          "type": "bytes32"
        }
      ],
      "name": "delegateBySig",
      "outputs": [],
      "stateMutability": "nonpayable",
      "type": "function"
    },
    {
      "inputs": [
        {
          "internalType": "address",
          "name": "account",
          "type": "address"
        }
      ],
      "name": "delegates",
      "outputs": [
        {
          "internalType": "address",
          "name": "",
          "type": "address"
        }
      ],
      "stateMutability": "view",
      "type": "function"
    },
    {
      "inputs": [],
      "name": "eip712Domain",
      "outputs": [
        {
          "internalType": "bytes1",
          "name": "fields",
          "type": "bytes1"
        },
        {
          "internalType": "string",
          "name": "name",
          "type": "string"
        },
        {
          "internalType": "string",
          "name": "version",
          "type": "string"
        },
        {
          "internalType": "uint256",
          "name": "chainId",
          "type": "uint256"
        },
        {
          "internalType": "address",
          "name": "verifyingContract",
          "type": "address"
        },
        {
          "internalType": "bytes32",
          "name": "salt",
          "type": "bytes32"
        },
        {
          "internalType": "uint256[]",
          "name": "extensions",
          "type": "uint256[]"
        }
      ],
      "stateMutability": "view",
      "type": "function"
    },
    {
      "inputs": [
        {
          "internalType": "uint256",
          "name": "timepoint",
          "type": "uint256"
        }
      ],
      "name": "getPastTotalSupply",
      "outputs": [
        {
          "internalType": "uint256",
          "name": "",
          "type": "uint256"
        }
      ],
      "stateMutability": "view",
      "type": "function"
    },
    {
      "inputs": [
        {
          "internalType": "address",
          "name": "account",
          "type": "address"
        },
        {
          "internalType": "uint256",
          "name": "timepoint",
          "type": "uint256"
        }
      ],
      "name": "getPastVotes",
      "outputs": [
        {
          "internalType": "uint256",
          "name": "",
          "type": "uint256"
        }
      ],
      "stateMutability": "view",
      "type": "function"
    },
    {
      "inputs": [
        {
          "internalType": "address",
          "name": "account",
          "type": "address"
        }
      ],
      "name": "getVotes",
      "outputs": [
        {
          "internalType": "uint256",
          "name": "",
          "type": "uint256"
        }
      ],
      "stateMutability": "view",
      "type": "function"
    },
    {
      "inputs": [],
      "name": "governor",
      "outputs": [
        {
          "internalType": "address",
          "name": "",
          "type": "address"
        }
      ],
      "stateMutability": "view",
      "type": "function"
    },
    {
      "inputs": [
        {
          "internalType": "address",
          "name": "to",
          "type": "address"
        },
        {
          "internalType": "uint256",
          "name": "amount",
          "type": "uint256"
        }
      ],
      "name": "mint",
      "outputs": [],
      "stateMutability": "nonpayable",
      "type": "function"
    },
    {
      "inputs": [],
      "name": "name",
      "outputs": [
        {
          "internalType": "string",
          "name": "",
          "type": "string"
        }
      ],
      "stateMutability": "view",
      "type": "function"
    },
    {
      "inputs": [
        {
          "internalType": "address",
          "name": "owner",
          "type": "address"
        }
      ],
      "name": "nonces",
      "outputs": [
        {
          "internalType": "uint256",
          "name": "",
          "type": "uint256"
        }
      ],
      "stateMutability": "view",
      "type": "function"
    },
    {
      "inputs": [
        {
          "internalType": "address",
          "name": "account",
          "type": "address"
        }
      ],
      "name": "numCheckpoints",
      "outputs": [
        {
          "internalType": "uint32",
          "name": "",
          "type": "uint32"
        }
      ],
      "stateMutability": "view",
      "type": "function"
    },
    {
      "inputs": [
        {
          "internalType": "address",
          "name": "owner",
          "type": "address"
        },
        {
          "internalType": "address",
          "name": "spender",
          "type": "address"
        },
        {
          "internalType": "uint256",
          "name": "value",
          "type": "uint256"
        },
        {
          "internalType": "uint256",
          "name": "deadline",
          "type": "uint256"
        },
        {
          "internalType": "uint8",
          "name": "v",
          "type": "uint8"
        },
        {
          "internalType": "bytes32",
          "name": "r",
          "type": "bytes32"
        },
        {
          "internalType": "bytes32",
          "name": "s",
          "type": "bytes32"
        }
      ],
      "name": "permit",
      "outputs": [],
      "stateMutability": "nonpayable",
      "type": "function"
    },
    {
      "inputs": [
        {
          "internalType": "address",
          "name": "_governor",
          "type": "address"
        }
      ],
      "name": "setGovernor",
      "outputs": [],
      "stateMutability": "nonpayable",
      "type": "function"
    },
    {
      "inputs": [],
      "name": "symbol",
      "outputs": [
        {
          "internalType": "string",
          "name": "",
          "type": "string"
        }
      ],
      "stateMutability": "view",
      "type": "function"
    },
    {
      "inputs": [],
      "name": "totalSupply",
      "outputs": [
        {
          "internalType": "uint256",
          "name": "",
          "type": "uint256"
        }
      ],
      "stateMutability": "view",
      "type": "function"
    },
    {
      "inputs": [
        {
          "internalType": "address",
          "name": "to",
          "type": "address"
        },
        {
          "internalType": "uint256",
          "name": "value",
          "type": "uint256"
        }
      ],
      "name": "transfer",
      "outputs": [
        {
          "internalType": "bool",
          "name": "",
          "type": "bool"
        }
      ],
      "stateMutability": "nonpayable",
      "type": "function"
    },
    {
      "inputs": [
        {
          "internalType": "address",
          "name": "from",
          "type": "address"
        },
        {
          "internalType": "address",
          "name": "to",
          "type": "address"
        },
        {
          "internalType": "uint256",
          "name": "value",
          "type": "uint256"
        }
      ],
      "name": "transferFrom",
      "outputs": [
        {
          "internalType": "bool",
          "name": "",
          "type": "bool"
        }
      ],
      "stateMutability": "nonpayable",
      "type": "function"
    }
  ],
  "bytecode": "0x610160604052348015610010575f5ffd5b506040518060400160405280600f81526020016e23b7bb32b93730b731b2aa37b5b2b760891b81525080604051806040016040528060018152602001603160f81b8152506040518060400160405280600f81526020016e23b7bb32b93730b731b2aa37b5b2b760891b8152506040518060400160405280600381526020016211d59560ea1b81525081600390816100a791906108bc565b5060046100b482826108bc565b506100c491508390506005610182565b610120526100d3816006610182565b61014052815160208084019190912060e052815190820120610100524660a05261015f60e05161010051604080517f8b73c3c69bb8fe3d512ecc4cf759cc79239f7b179b0ffacaa9a75d522b39400f60208201529081019290925260608201524660808201523060a08201525f9060c00160405160208183030381529060405280519060200120905090565b60805250503060c0525061017d3369021e19e0c9bab24000006101b4565b610a46565b5f60208351101561019d57610196836101f1565b90506101ae565b816101a884826108bc565b5060ff90505b92915050565b6001600160a01b0382166101e25760405163ec442f0560e01b81525f60048201526024015b60405180910390fd5b6101ed5f838361022e565b5050565b5f5f829050601f8151111561021b578260405163305a27a960e01b81526004016101d99190610976565b8051610226826109ab565b179392505050565b61023983838361023e565b505050565b6102498383836102a4565b6001600160a01b038316610299575f61026160025490565b90506001600160d01b038082111561029657604051630e58ae9360e11b815260048101839052602481018290526044016101d9565b50505b6102398383836103ca565b6001600160a01b0383166102ce578060025f8282546102c391906109e2565b9091555061033e9050565b6001600160a01b0383165f90815260208190526040902054818110156103205760405163391434e360e21b81526001600160a01b038516600482015260248101829052604481018390526064016101d9565b6001600160a01b0384165f9081526020819052604090209082900390555b6001600160a01b03821661035a57600280548290039055610378565b6001600160a01b0382165f9081526020819052604090208054820190555b816001600160a01b0316836001600160a01b03167fddf252ad1be2c89b69c2b068fc378daa952ba7f163c4a11628f55a4df523b3ef836040516103bd91815260200190565b60405180910390a3505050565b6001600160a01b0383166103f8576103f5600a61096961045260201b176103f084610464565b61049b565b50505b6001600160a01b0382166104215761041e600a6109746104d060201b176103f084610464565b50505b6001600160a01b038381165f90815260086020526040808220548584168352912054610239929182169116836104db565b5f61045d82846109f5565b9392505050565b5f6001600160d01b03821115610497576040516306dfcc6560e41b815260d06004820152602481018390526044016101d9565b5090565b5f806104c36104a861062b565b6104bb6104b488610639565b868860201c565b879190610680565b915091505b935093915050565b5f61045d8284610a14565b816001600160a01b0316836001600160a01b0316141580156104fc57505f81115b15610239576001600160a01b03831615610594576001600160a01b0383165f9081526009602090815260408220829161054291906104d0901b610974176103f086610464565b6001600160d01b031691506001600160d01b03169150846001600160a01b03165f5160206128dd5f395f51905f528383604051610589929190918252602082015260400190565b60405180910390a250505b6001600160a01b03821615610239576001600160a01b0382165f908152600960209081526040822082916105d59190610452901b610969176103f086610464565b6001600160d01b031691506001600160d01b03169150836001600160a01b03165f5160206128dd5f395f51905f52838360405161061c929190918252602082015260400190565b60405180910390a25050505050565b5f61063461068d565b905090565b80545f9080156106785761065f83610652600184610a33565b5f91825260209091200190565b54660100000000000090046001600160d01b031661045d565b5f9392505050565b5f806104c3858585610697565b5f610634436107f3565b82545f9081908015610796575f6106b387610652600185610a33565b805490915065ffffffffffff80821691660100000000000090046001600160d01b03169088168211156106f957604051632520601d60e01b815260040160405180910390fd5b8765ffffffffffff168265ffffffffffff160361073557825465ffffffffffff1666010000000000006001600160d01b03891602178355610788565b6040805180820190915265ffffffffffff808a1682526001600160d01b03808a1660208085019182528d54600181018f555f8f815291909120945191519092166601000000000000029216919091179101555b94508593506104c892505050565b50506040805180820190915265ffffffffffff80851682526001600160d01b0380851660208085019182528854600181018a555f8a81529182209551925190931666010000000000000291909316179201919091559050816104c8565b5f65ffffffffffff821115610497576040516306dfcc6560e41b815260306004820152602481018390526044016101d9565b634e487b7160e01b5f52604160045260245ffd5b600181811c9082168061084d57607f821691505b60208210810361086b57634e487b7160e01b5f52602260045260245ffd5b50919050565b601f82111561023957805f5260205f20601f840160051c810160208510156108965750805b601f840160051c820191505b818110156108b5575f81556001016108a2565b5050505050565b81516001600160401b038111156108d5576108d5610825565b6108e9816108e38454610839565b84610871565b6020601f82116001811461091b575f83156109045750848201515b5f19600385901b1c1916600184901b1784556108b5565b5f84815260208120601f198516915b8281101561094a578785015182556020948501946001909201910161092a565b508482101561096757868401515f19600387901b60f8161c191681555b50505050600190811b01905550565b602081525f82518060208401528060208501604085015e5f604082850101526040601f19601f83011684010191505092915050565b8051602080830151919081101561086b575f1960209190910360031b1b16919050565b634e487b7160e01b5f52601160045260245ffd5b808201808211156101ae576101ae6109ce565b6001600160d01b0381811683821601908111156101ae576101ae6109ce565b6001600160d01b0382811682821603908111156101ae576101ae6109ce565b818103818111156101ae576101ae6109ce565b60805160a05160c05160e051610100516101205161014051611e46610a975f395f610db201525f610d8501525f610b4301525f610b1b01525f610a7601525f610aa001525f610aca0152611e465ff3fe608060405234801561000f575f5ffd5b5060043610610187575f3560e01c806370a08231116100d95780639ab24eb011610093578063c42cf5351161006e578063c42cf53514610392578063d505accf146103a5578063dd62ed3e146103b8578063f1127ed8146103f0575f5ffd5b80639ab24eb014610359578063a9059cbb1461036c578063c3cda5201461037f575f5ffd5b806370a08231146102c95780637ecebe00146102f157806384b0196e146103045780638e539e8c1461031f57806391ddadf41461033257806395d89b4114610351575f5ffd5b80633644e515116101445780634bf5d7e91161011f5780634bf5d7e91461025b578063587cde1e146102635780635c19a95c1461028e5780636fcfff45146102a1575f5ffd5b80633644e5151461022b5780633a46b1a81461023357806340c10f1914610246575f5ffd5b806306fdde031461018b578063095ea7b3146101a95780630c340a24146101cc57806318160ddd146101f757806323b872dd14610209578063313ce5671461021c575b5f5ffd5b61019361042f565b6040516101a09190611a78565b60405180910390f35b6101bc6101b7366004611aa5565b6104bf565b60405190151581526020016101a0565b600b546101df906001600160a01b031681565b6040516001600160a01b0390911681526020016101a0565b6002545b6040519081526020016101a0565b6101bc610217366004611acd565b6104d8565b604051601281526020016101a0565b6101fb6104fb565b6101fb610241366004611aa5565b610509565b610259610254366004611aa5565b610543565b005b61019361059f565b6101df610271366004611b07565b6001600160a01b039081165f908152600860205260409020541690565b61025961029c366004611b07565b610617565b6102b46102af366004611b07565b610622565b60405163ffffffff90911681526020016101a0565b6101fb6102d7366004611b07565b6001600160a01b03165f9081526020819052604090205490565b6101fb6102ff366004611b07565b61062c565b61030c610636565b6040516101a09796959493929190611b20565b6101fb61032d366004611bb6565b610678565b61033a61069c565b60405165ffffffffffff90911681526020016101a0565b6101936106a5565b6101fb610367366004611b07565b6106b4565b6101bc61037a366004611aa5565b6106d4565b61025961038d366004611bdd565b6106e1565b6102596103a0366004611b07565b61079d565b6102596103b3366004611c31565b61080f565b6101fb6103c6366004611c97565b6001600160a01b039182165f90815260016020908152604080832093909416825291909152205490565b6104036103fe366004611cc8565b610945565b60408051825165ffffffffffff1681526020928301516001600160d01b031692810192909252016101a0565b60606003805461043e90611d05565b80601f016020809104026020016040519081016040528092919081815260200182805461046a90611d05565b80156104b55780601f1061048c576101008083540402835291602001916104b5565b820191905f5260205f20905b81548152906001019060200180831161049857829003601f168201915b5050505050905090565b5f336104cc81858561097f565b60019150505b92915050565b5f336104e5858285610991565b6104f0858585610a0d565b506001949350505050565b5f610504610a6a565b905090565b5f61053361051683610b93565b6001600160a01b0385165f90815260096020526040902090610be1565b6001600160d01b03169392505050565b600b546001600160a01b031633146105915760405162461bcd60e51b815260206004820152600c60248201526b2737ba1033b7bb32b93737b960a11b60448201526064015b60405180910390fd5b61059b8282610c91565b5050565b60606105a9610cc5565b65ffffffffffff166105b961069c565b65ffffffffffff16146105df576040516301bfc1c560e61b815260040160405180910390fd5b5060408051808201909152601d81527f6d6f64653d626c6f636b6e756d6265722666726f6d3d64656661756c74000000602082015290565b3361059b8183610ccf565b5f6104d282610d40565b5f6104d282610d61565b5f6060805f5f5f6060610647610d7e565b61064f610dab565b604080515f80825260208201909252600f60f81b9b939a50919850469750309650945092509050565b5f61068d61068583610b93565b600a90610be1565b6001600160d01b031692915050565b5f610504610cc5565b60606004805461043e90611d05565b6001600160a01b0381165f90815260096020526040812061068d90610dd8565b5f336104cc818585610a0d565b8342111561070557604051632341d78760e11b815260048101859052602401610588565b604080517fe48329057bfd03d55e49b547132e39cffd9c1820ad7b9d4c5307691425d15adf60208201526001600160a01b0388169181019190915260608101869052608081018590525f9061077e906107769060a00160405160208183030381529060405280519060200120610e0f565b858585610e3b565b905061078a8187610e67565b6107948188610ccf565b50505050505050565b600b546001600160a01b0316156107ed5760405162461bcd60e51b815260206004820152601460248201527311dbdd995c9b9bdc88185b1c9958591e481cd95d60621b6044820152606401610588565b600b80546001600160a01b0319166001600160a01b0392909216919091179055565b834211156108335760405163313c898160e11b815260048101859052602401610588565b5f7f6e71edae12b1b97f4d1f60370fef10105fa2faae0126114a169c64845d6126c988888861087e8c6001600160a01b03165f90815260076020526040902080546001810190915590565b6040805160208101969096526001600160a01b0394851690860152929091166060840152608083015260a082015260c0810186905260e0016040516020818303038152906040528051906020012090505f6108d882610e0f565b90505f6108e782878787610e3b565b9050896001600160a01b0316816001600160a01b03161461092e576040516325c0072360e11b81526001600160a01b0380831660048301528b166024820152604401610588565b6109398a8a8a61097f565b50505050505050505050565b604080518082019091525f80825260208201526109628383610eb9565b9392505050565b5f6109628284611d51565b5f6109628284611d70565b61098c8383836001610eed565b505050565b6001600160a01b038381165f908152600160209081526040808320938616835292905220545f19811015610a0757818110156109f957604051637dc7a0d960e11b81526001600160a01b03841660048201526024810182905260448101839052606401610588565b610a0784848484035f610eed565b50505050565b6001600160a01b038316610a3657604051634b637e8f60e11b81525f6004820152602401610588565b6001600160a01b038216610a5f5760405163ec442f0560e01b81525f6004820152602401610588565b61098c838383610fbf565b5f306001600160a01b037f000000000000000000000000000000000000000000000000000000000000000016148015610ac257507f000000000000000000000000000000000000000000000000000000000000000046145b15610aec57507f000000000000000000000000000000000000000000000000000000000000000090565b610504604080517f8b73c3c69bb8fe3d512ecc4cf759cc79239f7b179b0ffacaa9a75d522b39400f60208201527f0000000000000000000000000000000000000000000000000000000000000000918101919091527f000000000000000000000000000000000000000000000000000000000000000060608201524660808201523060a08201525f9060c00160405160208183030381529060405280519060200120905090565b5f5f610b9d61069c565b90508065ffffffffffff168310610bd857604051637669fc0f60e11b81526004810184905265ffffffffffff82166024820152604401610588565b61096283610fca565b81545f9081816005811115610c3d575f610bfa84611000565b610c049085611d8f565b5f8881526020902090915081015465ffffffffffff9081169087161015610c2d57809150610c3b565b610c38816001611da2565b92505b505b5f610c4a87878585611158565b90508015610c8457610c6e87610c61600184611d8f565b5f91825260209091200190565b54600160301b90046001600160d01b0316610c86565b5f5b979650505050505050565b6001600160a01b038216610cba5760405163ec442f0560e01b81525f6004820152602401610588565b61059b5f8383610fbf565b5f61050443610fca565b6001600160a01b038281165f8181526008602052604080822080548686166001600160a01b0319821681179092559151919094169392849290917f3134e8a2e6d97e929a7e54011ea5485d7d196dd5f0ba4d4ef95803e8e3fc257f9190a461098c8183610d3b866111b7565b6111d4565b6001600160a01b0381165f908152600960205260408120546104d29061133d565b6001600160a01b0381165f908152600760205260408120546104d2565b60606105047f0000000000000000000000000000000000000000000000000000000000000000600561136d565b60606105047f0000000000000000000000000000000000000000000000000000000000000000600661136d565b80545f908015610e0757610df183610c61600184611d8f565b54600160301b90046001600160d01b0316610962565b5f9392505050565b5f6104d2610e1b610a6a565b8360405161190160f01b8152600281019290925260228201526042902090565b5f5f5f5f610e4b88888888611416565b925092509250610e5b82826114de565b50909695505050505050565b6001600160a01b0382165f90815260076020526040902080546001810190915581811461098c576040516301d4b62360e61b81526001600160a01b038416600482015260248101829052604401610588565b604080518082019091525f80825260208201526001600160a01b0383165f9081526009602052604090206109629083611596565b6001600160a01b038416610f165760405163e602df0560e01b81525f6004820152602401610588565b6001600160a01b038316610f3f57604051634a1406b160e11b81525f6004820152602401610588565b6001600160a01b038085165f9081526001602090815260408083209387168352929052208290558015610a0757826001600160a01b0316846001600160a01b03167f8c5be1e5ebec7d5bd14f71427d1e84f3dd0314c0f7b2291e5b200ac8c7c3b92584604051610fb191815260200190565b60405180910390a350505050565b61098c838383611603565b5f65ffffffffffff821115610ffc576040516306dfcc6560e41b81526030600482015260248101839052604401610588565b5090565b5f6001821161100d575090565b816001600160801b82106110265760809190911c9060401b5b6801000000000000000082106110415760409190911c9060201b5b64010000000082106110585760209190911c9060101b5b62010000821061106d5760109190911c9060081b5b61010082106110815760089190911c9060041b5b601082106110945760049190911c9060021b5b600482106110a05760011b5b600302600190811c908185816110b8576110b8611db5565b048201901c905060018185816110d0576110d0611db5565b048201901c905060018185816110e8576110e8611db5565b048201901c9050600181858161110057611100611db5565b048201901c9050600181858161111857611118611db5565b048201901c9050600181858161113057611130611db5565b048201901c905061114f81858161114957611149611db5565b04821190565b90039392505050565b5f5b818310156111af575f61116d8484611669565b5f8781526020902090915065ffffffffffff86169082015465ffffffffffff16111561119b578092506111a9565b6111a6816001611da2565b93505b5061115a565b509392505050565b6001600160a01b0381165f908152602081905260408120546104d2565b816001600160a01b0316836001600160a01b0316141580156111f557505f81115b1561098c576001600160a01b0383161561129c576001600160a01b0383165f90815260096020526040812081906112379061097461123286611683565b6116b6565b6001600160d01b031691506001600160d01b03169150846001600160a01b03167fdec2bacdd2f05b59de34da9b523dff8be42e5e38e818c82fdb0bae774387a7248383604051611291929190918252602082015260400190565b60405180910390a250505b6001600160a01b0382161561098c576001600160a01b0382165f90815260096020526040812081906112d49061096961123286611683565b6001600160d01b031691506001600160d01b03169150836001600160a01b03167fdec2bacdd2f05b59de34da9b523dff8be42e5e38e818c82fdb0bae774387a724838360405161132e929190918252602082015260400190565b60405180910390a25050505050565b5f63ffffffff821115610ffc576040516306dfcc6560e41b81526020600482015260248101839052604401610588565b606060ff831461138757611380836116ee565b90506104d2565b81805461139390611d05565b80601f01602080910402602001604051908101604052809291908181526020018280546113bf90611d05565b801561140a5780601f106113e15761010080835404028352916020019161140a565b820191905f5260205f20905b8154815290600101906020018083116113ed57829003601f168201915b505050505090506104d2565b5f80807f7fffffffffffffffffffffffffffffff5d576e7357a4501ddfe92f46681b20a084111561144f57505f915060039050826114d4565b604080515f808252602082018084528a905260ff891692820192909252606081018790526080810186905260019060a0016020604051602081039080840390855afa1580156114a0573d5f5f3e3d5ffd5b5050604051601f1901519150506001600160a01b0381166114cb57505f9250600191508290506114d4565b92505f91508190505b9450945094915050565b5f8260038111156114f1576114f1611dc9565b036114fa575050565b600182600381111561150e5761150e611dc9565b0361152c5760405163f645eedf60e01b815260040160405180910390fd5b600282600381111561154057611540611dc9565b036115615760405163fce698f760e01b815260048101829052602401610588565b600382600381111561157557611575611dc9565b0361059b576040516335e2f38360e21b815260048101829052602401610588565b604080518082019091525f8082526020820152825f018263ffffffff16815481106115c3576115c3611ddd565b5f9182526020918290206040805180820190915291015465ffffffffffff81168252600160301b90046001600160d01b0316918101919091529392505050565b61160e83838361172b565b6001600160a01b03831661165e575f61162660025490565b90506001600160d01b038082111561165b57604051630e58ae9360e11b81526004810183905260248101829052604401610588565b50505b61098c838383611851565b5f6116776002848418611df1565b61096290848416611da2565b5f6001600160d01b03821115610ffc576040516306dfcc6560e41b815260d0600482015260248101839052604401610588565b5f5f6116e16116c361069c565b6116d96116cf88610dd8565b868863ffffffff16565b8791906118c6565b915091505b935093915050565b60605f6116fa836118d3565b6040805160208082528183019092529192505f91906020820181803683375050509182525060208101929092525090565b6001600160a01b038316611755578060025f82825461174a9190611da2565b909155506117c59050565b6001600160a01b0383165f90815260208190526040902054818110156117a75760405163391434e360e21b81526001600160a01b03851660048201526024810182905260448101839052606401610588565b6001600160a01b0384165f9081526020819052604090209082900390555b6001600160a01b0382166117e1576002805482900390556117ff565b6001600160a01b0382165f9081526020819052604090208054820190555b816001600160a01b0316836001600160a01b03167fddf252ad1be2c89b69c2b068fc378daa952ba7f163c4a11628f55a4df523b3ef8360405161184491815260200190565b60405180910390a3505050565b6001600160a01b03831661187357611870600a61096961123284611683565b50505b6001600160a01b03821661189557611892600a61097461123284611683565b50505b6001600160a01b038381165f9081526008602052604080822054858416835291205461098c929182169116836111d4565b5f806116e18585856118fa565b5f60ff8216601f8111156104d257604051632cd44ac360e21b815260040160405180910390fd5b82545f90819080156119f0575f61191687610c61600185611d8f565b805490915065ffffffffffff80821691600160301b90046001600160d01b031690881682111561195957604051632520601d60e01b815260040160405180910390fd5b8765ffffffffffff168265ffffffffffff160361199257825465ffffffffffff16600160301b6001600160d01b038916021783556119e2565b6040805180820190915265ffffffffffff808a1682526001600160d01b03808a1660208085019182528d54600181018f555f8f81529190912094519151909216600160301b029216919091179101555b94508593506116e692505050565b50506040805180820190915265ffffffffffff80851682526001600160d01b0380851660208085019182528854600181018a555f8a815291822095519251909316600160301b0291909316179201919091559050816116e6565b5f81518084528060208401602086015e5f602082860101526020601f19601f83011685010191505092915050565b602081525f6109626020830184611a4a565b80356001600160a01b0381168114611aa0575f5ffd5b919050565b5f5f60408385031215611ab6575f5ffd5b611abf83611a8a565b946020939093013593505050565b5f5f5f60608486031215611adf575f5ffd5b611ae884611a8a565b9250611af660208501611a8a565b929592945050506040919091013590565b5f60208284031215611b17575f5ffd5b61096282611a8a565b60ff60f81b8816815260e060208201525f611b3e60e0830189611a4a565b8281036040840152611b508189611a4a565b606084018890526001600160a01b038716608085015260a0840186905283810360c0850152845180825260208087019350909101905f5b81811015611ba5578351835260209384019390920191600101611b87565b50909b9a5050505050505050505050565b5f60208284031215611bc6575f5ffd5b5035919050565b803560ff81168114611aa0575f5ffd5b5f5f5f5f5f5f60c08789031215611bf2575f5ffd5b611bfb87611a8a565b95506020870135945060408701359350611c1760608801611bcd565b9598949750929560808101359460a0909101359350915050565b5f5f5f5f5f5f5f60e0888a031215611c47575f5ffd5b611c5088611a8a565b9650611c5e60208901611a8a565b95506040880135945060608801359350611c7a60808901611bcd565b9699959850939692959460a0840135945060c09093013592915050565b5f5f60408385031215611ca8575f5ffd5b611cb183611a8a565b9150611cbf60208401611a8a565b90509250929050565b5f5f60408385031215611cd9575f5ffd5b611ce283611a8a565b9150602083013563ffffffff81168114611cfa575f5ffd5b809150509250929050565b600181811c90821680611d1957607f821691505b602082108103611d3757634e487b7160e01b5f52602260045260245ffd5b50919050565b634e487b7160e01b5f52601160045260245ffd5b6001600160d01b0381811683821601908111156104d2576104d2611d3d565b6001600160d01b0382811682821603908111156104d2576104d2611d3d565b818103818111156104d2576104d2611d3d565b808201808211156104d2576104d2611d3d565b634e487b7160e01b5f52601260045260245ffd5b634e487b7160e01b5f52602160045260245ffd5b634e487b7160e01b5f52603260045260245ffd5b5f82611e0b57634e487b7160e01b5f52601260045260245ffd5b50049056fea2646970667358221220578a7fc4bcc7c4d0c6ab5ac1cf035798f018da6e67cb14369203b6fc8ab06a0964736f6c634300081c0033dec2bacdd2f05b59de34da9b523dff8be42e5e38e818c82fdb0bae774387a724",
  "linkReferences": {},
  "deployedLinkReferences": {}
}