{
  "_format": "hh-sol-artifact-1",
  "contractName": "Escrow",
  "sourceName": "contracts/Escrow.sol",
  "abi": [
    {
      "inputs": [
        {
          "internalType": "address",
          "name": "_arbiter",
          "type": "address"
        },
        {
          "internalType": "address",
          "name": "_beneficiary",
          "type": "address"
        }
      ],
      "stateMutability": "payable",
      "type": "constructor"
    },
    {
      "anonymous": false,
      "inputs": [
        {
          "indexed": false,
          "internalType": "uint256",
          "name": "",
          "type": "uint256"
        }
      ],
      "name": "Approved",
      "type": "event"
    },
    {
      "inputs": [],
      "name": "approve",
      "outputs": [],
      "stateMutability": "nonpayable",
      "type": "function"
    },
    {
      "inputs": [],
      "name": "arbiter",
      "outputs": [
        {
          "internalType": "address",
          "name": "",
          "type": "address"
        }
      ],
      "stateMutability": "view",
      "type": "function"
    },
    {
      "inputs": [],
      "name": "beneficiary",
      "outputs": [
        {
          "internalType": "address",
          "name": "",
          "type": "address"
        }
      ],
      "stateMutability": "view",
      "type": "function"
    },
    {
      "inputs": [],
      "name": "depositor",
      "outputs": [
        {
          "internalType": "address",
          "name": "",
          "type": "address"
        }
      ],
      "stateMutability": "view",
      "type": "function"
    },
    {
      "inputs": [],
      "name": "isApproved",
      "outputs": [
        {
          "internalType": "bool",
          "name": "",
          "type": "bool"
        }
      ],
      "stateMutability": "view",
      "type": "function"
    }
  ],
  "bytecode": "0x60806040526040516106fd3803806106fd83398181016040528101906100259190610151565b816000806101000a81548173ffffffffffffffffffffffffffffffffffffffff021916908373ffffffffffffffffffffffffffffffffffffffff16021790555080600160006101000a81548173ffffffffffffffffffffffffffffffffffffffff021916908373ffffffffffffffffffffffffffffffffffffffff16021790555033600260006101000a81548173ffffffffffffffffffffffffffffffffffffffff021916908373ffffffffffffffffffffffffffffffffffffffff1602179055505050610191565b600080fd5b600073ffffffffffffffffffffffffffffffffffffffff82169050919050565b600061011e826100f3565b9050919050565b61012e81610113565b811461013957600080fd5b50565b60008151905061014b81610125565b92915050565b60008060408385031215610168576101676100ee565b5b60006101768582860161013c565b92505060206101878582860161013c565b9150509250929050565b61055d806101a06000396000f3fe608060405234801561001057600080fd5b50600436106100575760003560e01c806312424e3f1461005c57806328f371aa1461006657806338af3eed14610084578063c7c4ff46146100a2578063fe25e00a146100c0575b600080fd5b6100646100de565b005b61006e6102af565b60405161007b919061034d565b60405180910390f35b61008c6102c2565b60405161009991906103a9565b60405180910390f35b6100aa6102e8565b6040516100b791906103a9565b60405180910390f35b6100c861030e565b6040516100d591906103a9565b60405180910390f35b60008054906101000a900473ffffffffffffffffffffffffffffffffffffffff1673ffffffffffffffffffffffffffffffffffffffff163373ffffffffffffffffffffffffffffffffffffffff161461013657600080fd5b600260149054906101000a900460ff1615610186576040517f08c379a000000000000000000000000000000000000000000000000000000000815260040161017d90610421565b60405180910390fd5b60004790506000600160009054906101000a900473ffffffffffffffffffffffffffffffffffffffff1673ffffffffffffffffffffffffffffffffffffffff16826040516101d390610472565b60006040518083038185875af1925050503d8060008114610210576040519150601f19603f3d011682016040523d82523d6000602084013e610215565b606091505b5050905080610259576040517f08c379a0000000000000000000000000000000000000000000000000000000008152600401610250906104d3565b60405180910390fd5b7f3ad93af63cb7967b23e4fb500b7d7d28b07516325dcf341f88bebf959d82c1cb82604051610288919061050c565b60405180910390a16001600260146101000a81548160ff0219169083151502179055505050565b600260149054906101000a900460ff1681565b600160009054906101000a900473ffffffffffffffffffffffffffffffffffffffff1681565b600260009054906101000a900473ffffffffffffffffffffffffffffffffffffffff1681565b60008054906101000a900473ffffffffffffffffffffffffffffffffffffffff1681565b60008115159050919050565b61034781610332565b82525050565b6000602082019050610362600083018461033e565b92915050565b600073ffffffffffffffffffffffffffffffffffffffff82169050919050565b600061039382610368565b9050919050565b6103a381610388565b82525050565b60006020820190506103be600083018461039a565b92915050565b600082825260208201905092915050565b7f457363726f7720616c726561647920617070726f766564000000000000000000600082015250565b600061040b6017836103c4565b9150610416826103d5565b602082019050919050565b6000602082019050818103600083015261043a816103fe565b9050919050565b600081905092915050565b50565b600061045c600083610441565b91506104678261044c565b600082019050919050565b600061047d8261044f565b9150819050919050565b7f4661696c656420746f2073656e64204574686572000000000000000000000000600082015250565b60006104bd6014836103c4565b91506104c882610487565b602082019050919050565b600060208201905081810360008301526104ec816104b0565b9050919050565b6000819050919050565b610506816104f3565b82525050565b600060208201905061052160008301846104fd565b9291505056fea26469706673582212201b132e31ed7be6acd2f311c6180f0802b00e9716479e5543d547b865f85cf17a64736f6c634300081c0033",
  "linkReferences": {},
  "deployedLinkReferences": {}
}