{
  "_format": "hh-sol-artifact-1",
  "contractName": "FranekekosKokosNFT",
  "sourceName": "contracts/FranekekosKokosNFT.sol",
  "abi": [
    {
      "inputs": [],
      "stateMutability": "nonpayable",
      "type": "constructor"
    },
    {
      "inputs": [
        {
          "internalType": "address",
          "name": "sender",
          "type": "address"
        },
        {
          "internalType": "uint256",
          "name": "tokenId",
          "type": "uint256"
        },
        {
          "internalType": "address",
          "name": "owner",
          "type": "address"
        }
      ],
      "name": "ERC721IncorrectOwner",
      "type": "error"
    },
    {
      "inputs": [
        {
          "internalType": "address",
          "name": "operator",
          "type": "address"
        },
        {
          "internalType": "uint256",
          "name": "tokenId",
          "type": "uint256"
        }
      ],
      "name": "ERC721InsufficientApproval",
      "type": "error"
    },
    {
      "inputs": [
        {
          "internalType": "address",
          "name": "approver",
          "type": "address"
        }
      ],
      "name": "ERC721InvalidApprover",
      "type": "error"
    },
    {
      "inputs": [
        {
          "internalType": "address",
          "name": "operator",
          "type": "address"
        }
      ],
      "name": "ERC721InvalidOperator",
      "type": "error"
    },
    {
      "inputs": [
        {
          "internalType": "address",
          "name": "owner",
          "type": "address"
        }
      ],
      "name": "ERC721InvalidOwner",
      "type": "error"
    },
    {
      "inputs": [
        {
          "internalType": "address",
          "name": "receiver",
          "type": "address"
        }
      ],
      "name": "ERC721InvalidReceiver",
      "type": "error"
    },
    {
      "inputs": [
        {
          "internalType": "address",
          "name": "sender",
          "type": "address"
        }
      ],
      "name": "ERC721InvalidSender",
      "type": "error"
    },
    {
      "inputs": [
        {
          "internalType": "uint256",
          "name": "tokenId",
          "type": "uint256"
        }
      ],
      "name": "ERC721NonexistentToken",
      "type": "error"
    },
    {
      "inputs": [
        {
          "internalType": "address",
          "name": "owner",
          "type": "address"
        }
      ],
      "name": "OwnableInvalidOwner",
      "type": "error"
    },
    {
      "inputs": [
        {
          "internalType": "address",
          "name": "account",
          "type": "address"
        }
      ],
      "name": "OwnableUnauthorizedAccount",
      "type": "error"
    },
    {
      "anonymous": false,
      "inputs": [
        {
          "indexed": true,
          "internalType": "address",
          "name": "owner",
          "type": "address"
        },
        {
          "indexed": true,
          "internalType": "address",
          "name": "approved",
          "type": "address"
        },
        {
          "indexed": true,
          "internalType": "uint256",
          "name": "tokenId",
          "type": "uint256"
        }
      ],
      "name": "Approval",
      "type": "event"
    },
    {
      "anonymous": false,
      "inputs": [
        {
          "indexed": true,
          "internalType": "address",
          "name": "owner",
          "type": "address"
        },
        {
          "indexed": true,
          "internalType": "address",
          "name": "operator",
          "type": "address"
        },
        {
          "indexed": false,
          "internalType": "bool",
          "name": "approved",
          "type": "bool"
        }
      ],
      "name": "ApprovalForAll",
      "type": "event"
    },
    {
      "anonymous": false,
      "inputs": [
        {
          "indexed": false,
          "internalType": "uint256",
          "name": "_fromTokenId",
          "type": "uint256"
        },
        {
          "indexed": false,
          "internalType": "uint256",
          "name": "_toTokenId",
          "type": "uint256"
        }
      ],
      "name": "BatchMetadataUpdate",
      "type": "event"
    },
    {
      "anonymous": false,
      "inputs": [
        {
          "indexed": false,
          "internalType": "uint256",
          "name": "_tokenId",
          "type": "uint256"
        }
      ],
      "name": "MetadataUpdate",
      "type": "event"
    },
    {
      "anonymous": false,
      "inputs": [
        {
          "indexed": true,
          "internalType": "address",
          "name": "previousOwner",
          "type": "address"
        },
        {
          "indexed": true,
          "internalType": "address",
          "name": "newOwner",
          "type": "address"
        }
      ],
      "name": "OwnershipTransferred",
      "type": "event"
    },
    {
      "anonymous": false,
      "inputs": [
        {
          "indexed": true,
          "internalType": "address",
          "name": "from",
          "type": "address"
        },
        {
          "indexed": true,
          "internalType": "address",
          "name": "to",
          "type": "address"
        },
        {
          "indexed": true,
          "internalType": "uint256",
          "name": "tokenId",
          "type": "uint256"
        }
      ],
      "name": "Transfer",
      "type": "event"
    },
    {
      "inputs": [
        {
          "internalType": "address",
          "name": "to",
          "type": "address"
        },
        {
          "internalType": "uint256",
          "name": "tokenId",
          "type": "uint256"
        }
      ],
      "name": "approve",
      "outputs": [],
      "stateMutability": "nonpayable",
      "type": "function"
    },
    {
      "inputs": [
        {
          "internalType": "address",
          "name": "owner",
          "type": "address"
        }
      ],
      "name": "balanceOf",
      "outputs": [
        {
          "internalType": "uint256",
          "name": "",
          "type": "uint256"
        }
      ],
      "stateMutability": "view",
      "type": "function"
    },
    {
      "inputs": [
        {
          "internalType": "uint256",
          "name": "tokenId",
          "type": "uint256"
        }
      ],
      "name": "getApproved",
      "outputs": [
        {
          "internalType": "address",
          "name": "",
          "type": "address"
        }
      ],
      "stateMutability": "view",
      "type": "function"
    },
    {
      "inputs": [
        {
          "internalType": "address",
          "name": "owner",
          "type": "address"
        },
        {
          "internalType": "address",
          "name": "operator",
          "type": "address"
        }
      ],
      "name": "isApprovedForAll",
      "outputs": [
        {
          "internalType": "bool",
          "name": "",
          "type": "bool"
        }
      ],
      "stateMutability": "view",
      "type": "function"
    },
    {
      "inputs": [],
      "name": "name",
      "outputs": [
        {
          "internalType": "string",
          "name": "",
          "type": "string"
        }
      ],
      "stateMutability": "view",
      "type": "function"
    },
    {
      "inputs": [],
      "name": "owner",
      "outputs": [
        {
          "internalType": "address",
          "name": "",
          "type": "address"
        }
      ],
      "stateMutability": "view",
      "type": "function"
    },
    {
      "inputs": [
        {
          "internalType": "uint256",
          "name": "tokenId",
          "type": "uint256"
        }
      ],
      "name": "ownerOf",
      "outputs": [
        {
          "internalType": "address",
          "name": "",
          "type": "address"
        }
      ],
      "stateMutability": "view",
      "type": "function"
    },
    {
      "inputs": [],
      "name": "renounceOwnership",
      "outputs": [],
      "stateMutability": "nonpayable",
      "type": "function"
    },
    {
      "inputs": [
        {
          "internalType": "address",
          "name": "to",
          "type": "address"
        },
        {
          "internalType": "string",
          "name": "uri",
          "type": "string"
        }
      ],
      "name": "safeMint",
      "outputs": [],
      "stateMutability": "nonpayable",
      "type": "function"
    },
    {
      "inputs": [
        {
          "internalType": "address",
          "name": "from",
          "type": "address"
        },
        {
          "internalType": "address",
          "name": "to",
          "type": "address"
        },
        {
          "internalType": "uint256",
          "name": "tokenId",
          "type": "uint256"
        }
      ],
      "name": "safeTransferFrom",
      "outputs": [],
      "stateMutability": "nonpayable",
      "type": "function"
    },
    {
      "inputs": [
        {
          "internalType": "address",
          "name": "from",
          "type": "address"
        },
        {
          "internalType": "address",
          "name": "to",
          "type": "address"
        },
        {
          "internalType": "uint256",
          "name": "tokenId",
          "type": "uint256"
        },
        {
          "internalType": "bytes",
          "name": "data",
          "type": "bytes"
        }
      ],
      "name": "safeTransferFrom",
      "outputs": [],
      "stateMutability": "nonpayable",
      "type": "function"
    },
    {
      "inputs": [
        {
          "internalType": "address",
          "name": "operator",
          "type": "address"
        },
        {
          "internalType": "bool",
          "name": "approved",
          "type": "bool"
        }
      ],
      "name": "setApprovalForAll",
      "outputs": [],
      "stateMutability": "nonpayable",
      "type": "function"
    },
    {
      "inputs": [
        {
          "internalType": "bytes4",
          "name": "interfaceId",
          "type": "bytes4"
        }
      ],
      "name": "supportsInterface",
      "outputs": [
        {
          "internalType": "bool",
          "name": "",
          "type": "bool"
        }
      ],
      "stateMutability": "view",
      "type": "function"
    },
    {
      "inputs": [],
      "name": "symbol",
      "outputs": [
        {
          "internalType": "string",
          "name": "",
          "type": "string"
        }
      ],
      "stateMutability": "view",
      "type": "function"
    },
    {
      "inputs": [
        {
          "internalType": "uint256",
          "name": "tokenId",
          "type": "uint256"
        }
      ],
      "name": "tokenURI",
      "outputs": [
        {
          "internalType": "string",
          "name": "",
          "type": "string"
        }
      ],
      "stateMutability": "view",
      "type": "function"
    },
    {
      "inputs": [
        {
          "internalType": "address",
          "name": "from",
          "type": "address"
        },
        {
          "internalType": "address",
          "name": "to",
          "type": "address"
        },
        {
          "internalType": "uint256",
          "name": "tokenId",
          "type": "uint256"
        }
      ],
      "name": "transferFrom",
      "outputs": [],
      "stateMutability": "nonpayable",
      "type": "function"
    },
    {
      "inputs": [
        {
          "internalType": "address",
          "name": "newOwner",
          "type": "address"
        }
      ],
      "name": "transferOwnership",
      "outputs": [],
      "stateMutability": "nonpayable",
      "type": "function"
    }
  ],
  "bytecode": "0x608060405234801561000f575f5ffd5b503360405180604001604052806012815260200171119c985b995ad95adbdcd2dbdadbdcd3919560721b81525060405180604001604052806003815260200162232a2760e91b815250815f9081610066919061019b565b506001610073828261019b565b5050506001600160a01b0381166100a357604051631e4fbdf760e01b81525f600482015260240160405180910390fd5b6100ac816100b2565b50610255565b600780546001600160a01b038381166001600160a01b0319831681179093556040519116919082907f8be0079c531659141344cd1fd0a4f28419497f9722a3daafe3b4186f6b6457e0905f90a35050565b634e487b7160e01b5f52604160045260245ffd5b600181811c9082168061012b57607f821691505b60208210810361014957634e487b7160e01b5f52602260045260245ffd5b50919050565b601f82111561019657805f5260205f20601f840160051c810160208510156101745750805b601f840160051c820191505b81811015610193575f8155600101610180565b50505b505050565b81516001600160401b038111156101b4576101b4610103565b6101c8816101c28454610117565b8461014f565b6020601f8211600181146101fa575f83156101e35750848201515b5f19600385901b1c1916600184901b178455610193565b5f84815260208120601f198516915b828110156102295787850151825560209485019460019092019101610209565b508482101561024657868401515f19600387901b60f8161c191681555b50505050600190811b01905550565b6113b1806102625f395ff3fe608060405234801561000f575f5ffd5b5060043610610106575f3560e01c8063715018a61161009e578063b88d4fde1161006e578063b88d4fde14610215578063c87b56dd14610228578063d204c45e1461023b578063e985e9c51461024e578063f2fde38b14610261575f5ffd5b8063715018a6146101e15780638da5cb5b146101e957806395d89b41146101fa578063a22cb46514610202575f5ffd5b806323b872dd116100d957806323b872dd1461018757806342842e0e1461019a5780636352211e146101ad57806370a08231146101c0575f5ffd5b806301ffc9a71461010a57806306fdde0314610132578063081812fc14610147578063095ea7b314610172575b5f5ffd5b61011d610118366004610ecc565b610274565b60405190151581526020015b60405180910390f35b61013a610284565b6040516101299190610f15565b61015a610155366004610f27565b610313565b6040516001600160a01b039091168152602001610129565b610185610180366004610f59565b61033a565b005b610185610195366004610f81565b610349565b6101856101a8366004610f81565b6103d7565b61015a6101bb366004610f27565b6103f6565b6101d36101ce366004610fbb565b610400565b604051908152602001610129565b610185610445565b6007546001600160a01b031661015a565b61013a610458565b610185610210366004610fd4565b610467565b610185610223366004611098565b610472565b61013a610236366004610f27565b61048a565b61018561024936600461110f565b610495565b61011d61025c36600461116d565b6104c7565b61018561026f366004610fbb565b6104f4565b5f61027e82610531565b92915050565b60605f80546102929061119e565b80601f01602080910402602001604051908101604052809291908181526020018280546102be9061119e565b80156103095780601f106102e057610100808354040283529160200191610309565b820191905f5260205f20905b8154815290600101906020018083116102ec57829003601f168201915b5050505050905090565b5f61031d82610555565b505f828152600460205260409020546001600160a01b031661027e565b61034582823361058d565b5050565b6001600160a01b03821661037757604051633250574960e11b81525f60048201526024015b60405180910390fd5b5f61038383833361059a565b9050836001600160a01b0316816001600160a01b0316146103d1576040516364283d7b60e01b81526001600160a01b038086166004830152602482018490528216604482015260640161036e565b50505050565b6103f183838360405180602001604052805f815250610472565b505050565b5f61027e82610555565b5f6001600160a01b03821661042a576040516322718ad960e21b81525f600482015260240161036e565b506001600160a01b03165f9081526003602052604090205490565b61044d6105ae565b6104565f6105db565b565b6060600180546102929061119e565b61034533838361062c565b61047d848484610349565b6103d133858585856106ca565b606061027e826107f2565b61049d6105ae565b600880549081905f6104ae836111d6565b91905055506104bd83826108f5565b6103f1818361090e565b6001600160a01b039182165f90815260056020908152604080832093909416825291909152205460ff1690565b6104fc6105ae565b6001600160a01b03811661052557604051631e4fbdf760e01b81525f600482015260240161036e565b61052e816105db565b50565b5f6001600160e01b03198216632483248360e11b148061027e575061027e8261095d565b5f818152600260205260408120546001600160a01b03168061027e57604051637e27328960e01b81526004810184905260240161036e565b6103f183838360016109ac565b5f6105a6848484610ab0565b949350505050565b6007546001600160a01b031633146104565760405163118cdaa760e01b815233600482015260240161036e565b600780546001600160a01b038381166001600160a01b0319831681179093556040519116919082907f8be0079c531659141344cd1fd0a4f28419497f9722a3daafe3b4186f6b6457e0905f90a35050565b6001600160a01b03821661065e57604051630b61174360e31b81526001600160a01b038316600482015260240161036e565b6001600160a01b038381165f81815260056020908152604080832094871680845294825291829020805460ff191686151590811790915591519182527f17307eab39ab6107e8899845ad3d59bd9653f200f220920489ca2b5937696c31910160405180910390a3505050565b6001600160a01b0383163b156107eb57604051630a85bd0160e11b81526001600160a01b0384169063150b7a029061070c9088908890879087906004016111fa565b6020604051808303815f875af1925050508015610746575060408051601f3d908101601f1916820190925261074391810190611236565b60015b6107ad573d808015610773576040519150601f19603f3d011682016040523d82523d5f602084013e610778565b606091505b5080515f036107a557604051633250574960e11b81526001600160a01b038516600482015260240161036e565b805160208201fd5b6001600160e01b03198116630a85bd0160e11b146107e957604051633250574960e11b81526001600160a01b038516600482015260240161036e565b505b5050505050565b60606107fd82610555565b505f82815260066020526040812080546108169061119e565b80601f01602080910402602001604051908101604052809291908181526020018280546108429061119e565b801561088d5780601f106108645761010080835404028352916020019161088d565b820191905f5260205f20905b81548152906001019060200180831161087057829003601f168201915b505050505090505f6108a960408051602081019091525f815290565b905080515f036108ba575092915050565b8151156108ec5780826040516020016108d4929190611268565b60405160208183030381529060405292505050919050565b6105a684610ba2565b610345828260405180602001604052805f815250610c13565b5f82815260066020526040902061092582826112c0565b506040518281527ff8e1a15aba9398e019f0b49df1a4fde98ee17ae345cb5f6b5e2c27f5033e8ce79060200160405180910390a15050565b5f6001600160e01b031982166380ac58cd60e01b148061098d57506001600160e01b03198216635b5e139f60e01b145b8061027e57506301ffc9a760e01b6001600160e01b031983161461027e565b80806109c057506001600160a01b03821615155b15610a81575f6109cf84610555565b90506001600160a01b038316158015906109fb5750826001600160a01b0316816001600160a01b031614155b8015610a0e5750610a0c81846104c7565b155b15610a375760405163a9fbf51f60e01b81526001600160a01b038416600482015260240161036e565b8115610a7f5783856001600160a01b0316826001600160a01b03167f8c5be1e5ebec7d5bd14f71427d1e84f3dd0314c0f7b2291e5b200ac8c7c3b92560405160405180910390a45b505b50505f90815260046020526040902080546001600160a01b0319166001600160a01b0392909216919091179055565b5f828152600260205260408120546001600160a01b0390811690831615610adc57610adc818486610c2a565b6001600160a01b03811615610b1657610af75f855f5f6109ac565b6001600160a01b0381165f90815260036020526040902080545f190190555b6001600160a01b03851615610b44576001600160a01b0385165f908152600360205260409020805460010190555b5f8481526002602052604080822080546001600160a01b0319166001600160a01b0389811691821790925591518793918516917fddf252ad1be2c89b69c2b068fc378daa952ba7f163c4a11628f55a4df523b3ef91a4949350505050565b6060610bad82610555565b505f610bc360408051602081019091525f815290565b90505f815111610be15760405180602001604052805f815250610c0c565b80610beb84610c8e565b604051602001610bfc929190611268565b6040516020818303038152906040525b9392505050565b610c1d8383610d1e565b6103f1335f8585856106ca565b610c35838383610d7f565b6103f1576001600160a01b038316610c6357604051637e27328960e01b81526004810182905260240161036e565b60405163177e802f60e01b81526001600160a01b03831660048201526024810182905260440161036e565b60605f610c9a83610de0565b60010190505f8167ffffffffffffffff811115610cb957610cb961100d565b6040519080825280601f01601f191660200182016040528015610ce3576020820181803683370190505b5090508181016020015b5f19016f181899199a1a9b1b9c1cb0b131b232b360811b600a86061a8153600a8504945084610ced57509392505050565b6001600160a01b038216610d4757604051633250574960e11b81525f600482015260240161036e565b5f610d5383835f61059a565b90506001600160a01b038116156103f1576040516339e3563760e11b81525f600482015260240161036e565b5f6001600160a01b038316158015906105a65750826001600160a01b0316846001600160a01b03161480610db85750610db884846104c7565b806105a65750505f908152600460205260409020546001600160a01b03908116911614919050565b5f8072184f03e93ff9f4daa797ed6e38ed64bf6a1f0160401b8310610e1e5772184f03e93ff9f4daa797ed6e38ed64bf6a1f0160401b830492506040015b6d04ee2d6d415b85acef81000000008310610e4a576d04ee2d6d415b85acef8100000000830492506020015b662386f26fc100008310610e6857662386f26fc10000830492506010015b6305f5e1008310610e80576305f5e100830492506008015b6127108310610e9457612710830492506004015b60648310610ea6576064830492506002015b600a831061027e5760010192915050565b6001600160e01b03198116811461052e575f5ffd5b5f60208284031215610edc575f5ffd5b8135610c0c81610eb7565b5f81518084528060208401602086015e5f602082860101526020601f19601f83011685010191505092915050565b602081525f610c0c6020830184610ee7565b5f60208284031215610f37575f5ffd5b5035919050565b80356001600160a01b0381168114610f54575f5ffd5b919050565b5f5f60408385031215610f6a575f5ffd5b610f7383610f3e565b946020939093013593505050565b5f5f5f60608486031215610f93575f5ffd5b610f9c84610f3e565b9250610faa60208501610f3e565b929592945050506040919091013590565b5f60208284031215610fcb575f5ffd5b610c0c82610f3e565b5f5f60408385031215610fe5575f5ffd5b610fee83610f3e565b915060208301358015158114611002575f5ffd5b809150509250929050565b634e487b7160e01b5f52604160045260245ffd5b5f5f67ffffffffffffffff84111561103b5761103b61100d565b50604051601f19601f85018116603f0116810181811067ffffffffffffffff8211171561106a5761106a61100d565b604052838152905080828401851015611081575f5ffd5b838360208301375f60208583010152509392505050565b5f5f5f5f608085870312156110ab575f5ffd5b6110b485610f3e565b93506110c260208601610f3e565b925060408501359150606085013567ffffffffffffffff8111156110e4575f5ffd5b8501601f810187136110f4575f5ffd5b61110387823560208401611021565b91505092959194509250565b5f5f60408385031215611120575f5ffd5b61112983610f3e565b9150602083013567ffffffffffffffff811115611144575f5ffd5b8301601f81018513611154575f5ffd5b61116385823560208401611021565b9150509250929050565b5f5f6040838503121561117e575f5ffd5b61118783610f3e565b915061119560208401610f3e565b90509250929050565b600181811c908216806111b257607f821691505b6020821081036111d057634e487b7160e01b5f52602260045260245ffd5b50919050565b5f600182016111f357634e487b7160e01b5f52601160045260245ffd5b5060010190565b6001600160a01b03858116825284166020820152604081018390526080606082018190525f9061122c90830184610ee7565b9695505050505050565b5f60208284031215611246575f5ffd5b8151610c0c81610eb7565b5f81518060208401855e5f93019283525090919050565b5f6105a66112768386611251565b84611251565b601f8211156103f157805f5260205f20601f840160051c810160208510156112a15750805b601f840160051c820191505b818110156107eb575f81556001016112ad565b815167ffffffffffffffff8111156112da576112da61100d565b6112ee816112e8845461119e565b8461127c565b6020601f821160018114611320575f83156113095750848201515b5f19600385901b1c1916600184901b1784556107eb565b5f84815260208120601f198516915b8281101561134f578785015182556020948501946001909201910161132f565b508482101561136c57868401515f19600387901b60f8161c191681555b50505050600190811b0190555056fea2646970667358221220659d221c0a5802392079b0a5a05435e323f2c926563d82f6ea702c559c2d807a64736f6c634300081c0033",
  "linkReferences": {},
  "deployedLinkReferences": {}
}